S01700004763634170706C69636174696F6E312E737265635B
S11300000C9443000C944D000C944D000C944D0042
S11300100C944D000C944D000C944D000C944D0028
S11300200C944D000C944D000C944D000C944D0018
S11300300C944D000C944D000C944D000C944D0008
S11300400C944D000C944D000C944D000C944D00F8
S11300500C944D000C944D000C944D000C944D00E8
S11300600C944D000C944D0005A84CCDB2D44EB95F
S11300703836A9020C50B9918688083CA6AAAA2A47
S1130080BE000000803F11241FBECFEFD8E0DEBFCA
S1130090CDBF0E944F000C945F030C9400008FEFBF
S11300A08AB9C12CD12C76012BED3FE049EC50E408
S11300B0C701B6010E94A1020E94270120E030EC92
S11300C04FEF53E40E94A10220E030E040E054E40A
S11300D00E94BB000E94A5012FEF269FA001279F2D
S11300E0500D1124BA0180E090E00E94D40120E078
S11300F030EC4FE754E40E942C010E94A50170E00B
S113010080E090E00E94D40120E030E04FEF52E420
S11301100E942C0120E030E040E85FE30E94BA0036
S11301204B015C012BED3FE049E450E4C701B6010B
S11301300E94A1020E940E039B01AC01C501B401FF
S11301400E94BB000E94270120E030E04EEF52E401
S11301500E94A1020E949E0161587F4F6BB92FE655
S113016032E143E85AE3C701B6010E94BB006B01C8
S11301707C019ACF5058BB27AA270E94D2000C9426
S113018053020E941A0238F00E94210220F039F42E
S11301909F3F19F426F40C9417020EF4E095E7FB44
S11301A00C941102E92F0E94780258F3BA176207DF
S11301B073078407950720F079F4A6F50C949A0246
S11301C00EF4E0950B2EBA2FA02D0B01B90190016E
S11301D00C01CA01A0011124FF27591B99F0593FB2
S11301E050F4503E68F11A16F040A22F232F342FFA
S11301F04427585FF3CF469537952795A795F04048
S11302005395C9F77EF41F16BA0B620B730B840B5C
S1130210BAF09150A1F0FF0FBB1F661F771F881F14
S1130220C2F70EC0BA0F621F731F841F48F487956C
S113023077956795B795F7959E3F08F0B0CF93955E
S1130240880F08F09927EE0F9795879508950E94D7
S11302502A02E3950C9464020E9440010C94530218
S11302600E94210258F00E941A0240F029F45F3FD4
S113027029F00C94110251110C949B020C94170256
S11302800E94780268F39923B1F3552391F3951BE7
S1130290550BBB27AA2762177307840738F09F5FA3
S11302A05F4F220F331F441FAA1FA9F335D00E2E10
S11302B03AF0E0E832D091505040E695001CCAF77D
S11302C02BD0FE2F29D0660F771F881FBB1F261740
S11302D037074807AB07B0E809F0BB0B802DBF0117
S11302E0FF2793585F4F3AF09E3F510578F00C94E6
S11302F011020C949B025F3FE4F3983ED4F386957D
S113030077956795B795F7959F5FC9F7880F911D06
S11303109695879597F90895E1E0660F771F881FF2
S1130320BB1F621773078407BA0720F0621B730BA5
S1130330840BBA0BEE1F88F7E09508950E94A5017F
S11303406894B1110C949B0208950E94800288F075
S11303509F5798F0B92F9927B751B0F0E1F0660F85
S1130360771F881F991F1AF0BA95C9F714C0B130C6
S113037091F00E949A02B1E008950C949A02672FBA
S1130380782F8827B85F39F0B93FCCF386957795F5
S11303906795B395D9F73EF49095809570956195DE
S11303A07F4F8F4F9F4F0895E89409C097FB3EF409
S11303B090958095709561957F4F8F4F9F4F9923AE
S11303C0A9F0F92F96E9BB279395F695879577952C
S11303D06795B795F111F8CFFAF4BB0F11F460FFEC
S11303E01BC06F5F7F4F8F4F9F4F16C0882311F044
S11303F096E911C0772321F09EE8872F762F05C058
S1130400662371F096E8862F70E060E02AF09A95F2
S1130410660F771F881FDAF7880F9695879597F9E7
S1130420089597F99F6780E870E060E008959FEF72
S113043080EC089500240A94161617061806090677
S1130440089500240A941216130614060506089546
S11304500C9417020E948002D8F3E894E0E0BB27D2
S11304609F57F0F02AED3FE049EC06C0EE0FBB0FBA
S1130470661F771F881F28F0B23A62077307840744
S113048028F0B25A620B730B840BE3959A9572F7BA
S1130490803830F49A95BB0F661F771F881FD2F7F8
S11304A090480C941803092E0394000C11F488232B
S11304B052F0BB0F40F4BF2B11F460FF04C06F5F18
S11304C07F4F8F4F9F4F0895EF93E0FF07C0A2EA3D
S11304D02AED3FE049EC5FEB0E94D2000E945302F8
S11304E00F90039401FC9058E8E6F0E00C94240388
S11304F057FD9058440F551F59F05F3F71F04795D1
S1130500880F97FB991F61F09F3F79F087950895B5
S1130510121613061406551FF2CF4695F1DF08C0D4
S1130520161617061806991FF1CF869571056105F1
S113053008940895E894BB2766277727CB0197F999
S113054008950E94B4020C9453020E941A0238F0D7
S11305500E94210220F0952311F00C9411020C94B6
S1130560170211240C949B020E94780270F3959F49
S1130570C1F3950F50E0551F629FF001729FBB2796
S1130580F00DB11D639FAA27F00DB11DAA1F649F32
S11305906627B00DA11D661F829F2227B00DA11DE5
S11305A0621F739FB00DA11D621F839FA00D611D6B
S11305B0221F749F3327A00D611D231F849F600D8C
S11305C0211D822F762F6A2F11249F5750409AF0B5
S11305D0F1F088234AF0EE0FFF1FBB1F661F771F41
S11305E0881F91505040A9F79E3F510580F00C940C
S11305F011020C949B025F3FE4F3983ED4F386957A
S113060077956795B795F795E7959F5FC1F7FE2BAB
S1130610880F911D9695879597F908959F930E9449
S11306202A020F9007FCEE5F0C9464029F3F31F0A6
S1130630915020F4879577956795B795880F911D0C
S11306409695879597F908959F938F937F936F93CA
S1130650FF93EF939B01AC010E94A102EF91FF91E4
S11306600E9438032F913F914F915F910C94A10206
S1130670DF93CF931F930F93FF92EF92DF927B014F
S11306808C01689406C0DA2EEF010E94B402FE01C8
S1130690E894A5912591359145915591A6F3EF01E3
S11306A00E94D200FE019701A801DA9469F7DF9055
S11306B0EF90FF900F911F91CF91DF910895F894DF
S10506C0FFCF66
S9030000FC
