:100000000C9434000C9451000C9451000C94510049
:100010000C9451000C9451000C9451000C9451001C
:100020000C9451000C9451000C9451000C9451000C
:100030000C9451000C9451000C9451000C945100FC
:100040000C9451000C9451000C9451000C945100EC
:100050000C9451000C9451000C9451000C945100DC
:100060000C9451000C94510011241FBECFEFD8E026
:10007000DEBFCDBF11E0A0E0B1E0E4E7F4E002C0F4
:1000800005900D92A430B107D9F721E0A4E0B1E0CA
:1000900001C01D92AB30B207E1F70E9453000C94EF
:1000A00038020C940000E1E6F0E0808182688083F1
:1000B00084B1816084B980E480937C00EAE7F0E059
:1000C00086E8808380818064808380917A0086FDC9
:1000D000FCCF81E085B980E480937C00EAE7F0E022
:1000E00080818064808380917A0086FDFCCFEAE77E
:1000F000F0E0808180618083809178009091790028
:1001000090930A0180930901813022E092076CF4F8
:1001100020910601211109C081E08093060114BCE1
:1001200085E085BD86B515B82DC08115924054F186
:1001300080910601813031F514BC15BC66B570E0C4
:10014000660F771F072E000C880B990B0E943F014A
:1001500020E030E040E854E40E94CB019B01AC0178
:1001600060E074E284E799E40E94CB0060930001B0
:1001700070930101809302019093030116BC1092C9
:10018000060115B880910401909105019093080132
:10019000809307019ECF0E94DF000C9491010E9482
:1001A0008A0158F00E94830140F029F45F3F29F052
:1001B0000C947A0151110C94C5010C9480010E9499
:1001C000A20168F39923B1F3552391F3951B550BC5
:1001D000BB27AA2762177307840738F09F5F5F4F1A
:1001E000220F331F441FAA1FA9F335D00E2E3AF059
:1001F000E0E832D091505040E695001CCAF72BD071
:10020000FE2F29D0660F771F881FBB1F26173707C1
:100210004807AB07B0E809F0BB0B802DBF01FF27F3
:1002200093585F4F3AF09E3F510578F00C947A0155
:100230000C94C5015F3FE4F3983ED4F3869577951F
:100240006795B795F7959F5FC9F7880F911D9695AC
:10025000879597F90895E1E0660F771F881FBB1F08
:10026000621773078407BA0720F0621B730B840BB5
:10027000BA0BEE1F88F7E0950895E89409C097FB44
:100280003EF490958095709561957F4F8F4F9F4F6D
:100290009923A9F0F92F96E9BB279395F6958795B1
:1002A00077956795B795F111F8CFFAF4BB0F11F474
:1002B00060FF1BC06F5F7F4F8F4F9F4F16C088231B
:1002C00011F096E911C0772321F09EE8872F762F51
:1002D00005C0662371F096E8862F70E060E02AF092
:1002E0009A95660F771F881FDAF7880F969587957E
:1002F00097F9089597F99F6780E870E060E00895A6
:100300009FEF80EC089500240A941616170618062D
:100310000906089500240A94121613061406050609
:100320000895092E0394000C11F4882352F0BB0F9A
:1003300040F4BF2B11F460FF04C06F5F7F4F8F4FFD
:100340009F4F089557FD9058440F551F59F05F3F38
:1003500071F04795880F97FB991F61F09F3F79F0E7
:1003600087950895121613061406551FF2CF469569
:10037000F1DF08C0161617061806991FF1CF8695EB
:100380007105610508940895E894BB2766277727CF
:10039000CB0197F908950E94DE010C9491010E940F
:1003A000830138F00E948A0120F0952311F00C940B
:1003B0007A010C94800111240C94C5010E94A201C1
:1003C00070F3959FC1F3950F50E0551F629FF001A8
:1003D000729FBB27F00DB11D639FAA27F00DB11DC1
:1003E000AA1F649F6627B00DA11D661F829F22274A
:1003F000B00DA11D621F739FB00DA11D621F839FD1
:10040000A00D611D221F749F3327A00D611D231FA6
:10041000849F600D211D822F762F6A2F11249F57F4
:1004200050409AF0F1F088234AF0EE0FFF1FBB1FF7
:10043000661F771F881F91505040A9F79E3F5105B6
:1004400080F00C947A010C94C5015F3FE4F3983E70
:10045000D4F3869577956795B795F795E7959F5F60
:10046000C1F7FE2B880F911D9695879597F90895F2
:04047000F894FFCF2E
:04047400000080BF45
:00000001FF
