:100000000C9434000C9451000C9451000C94510049
:100010000C9451000C9451000C9451000C9451001C
:100020000C9451000C9451000C9451000C9451000C
:100030000C9451000C9451000C9451000C945100FC
:100040000C9451000C9451000C9451000C945100EC
:100050000C9451000C9451000C9451000C945100DC
:100060000C9451000C94510011241FBECFEFD8E026
:10007000DEBFCDBF11E0A0E0B1E0EAEFF0E002C0EA
:1000800005900D92A030B107D9F721E0A0E0B1E0D2
:1000900001C01D92A230B207E1F70E9453000C94F8
:1000A0007B000C94000080E480937C00EAE7F0E0A1
:1000B00086E8808380818064808380917A0086FDD9
:1000C000FCCF80E480937C00EAE7F0E080818064EC
:1000D000808380917A0086FDFCCFEAE7F0E08081A2
:1000E00080618083809178009091790090930101E4
:0A00F00080930001E6CFF894FFCFE3
:00000001FF
