S0130000636F6E766572736F7241442E73726563AB
S11300000C9434000C943E000C943E000C943E007E
S11300100C943E000C943E000C943E000C943E0064
S11300200C943E000C943E000C943E000C943E0054
S11300300C943E000C943E000C943E000C943E0044
S11300400C943E000C943E000C943E000C943E0034
S11300500C943E000C943E000C943E000C943E0024
S11300600C943E000C943E0011241FBECFEFD8E048
S1130070DEBFCDBF0E946E000C9474000C9400008F
S113008080E480937C00EAE7F0E086E88083808166
S11300908064808380917A0086FDFCCF089580334C
S11300A019F410927C0003C081E080937C00EAE79D
S11300B0F0E080818064808380917A0086FDFCCFAB
S11300C0EAE7F0E08081806180838091790090E0AC
S11300D0982F882720917800822B08950E94400051
S10F00E080E30E944F00FCCFF894FFCF97
S9030000FC
