S00E000074696D6572432E73726563B2
S11300000C9434000C943E000C943E000C943E007E
S11300100C943E000C943E000C943E000C943E0064
S11300200C943E000C943E000C943E000C943E0054
S11300300C943E000C943E000C943E000C943E0044
S11300400C943E000C943E000C943E000C943E0034
S11300500C943E000C943E000C943E000C943E0024
S11300600C943E000C943E0011241FBECFEFD8E048
S1130070DEBFCDBF0E9440000C944F000C940000E2
S11300809FEF9AB905C014BC85E085BD86B58BB9D0
S11300908931C8F314BC15BC86B58BB9FBCFF89471
S10500A0FFCF8C
S9030000FC
